{
  "contractName": "Voting",
  "abi": [
    {
      "inputs": [],
      "stateMutability": "nonpayable",
      "type": "constructor"
    },
    {
      "inputs": [],
      "name": "admin",
      "outputs": [
        {
          "internalType": "address",
          "name": "",
          "type": "address"
        }
      ],
      "stateMutability": "view",
      "type": "function",
      "constant": true
    },
    {
      "inputs": [
        {
          "internalType": "uint256",
          "name": "",
          "type": "uint256"
        }
      ],
      "name": "candidateList",
      "outputs": [
        {
          "internalType": "string",
          "name": "",
          "type": "string"
        }
      ],
      "stateMutability": "view",
      "type": "function",
      "constant": true
    },
    {
      "inputs": [
        {
          "internalType": "address",
          "name": "",
          "type": "address"
        }
      ],
      "name": "hasVoted",
      "outputs": [
        {
          "internalType": "bool",
          "name": "",
          "type": "bool"
        }
      ],
      "stateMutability": "view",
      "type": "function",
      "constant": true
    },
    {
      "inputs": [],
      "name": "voteStarted",
      "outputs": [
        {
          "internalType": "bool",
          "name": "",
          "type": "bool"
        }
      ],
      "stateMutability": "view",
      "type": "function",
      "constant": true
    },
    {
      "inputs": [
        {
          "internalType": "string",
          "name": "",
          "type": "string"
        }
      ],
      "name": "votesReceived",
      "outputs": [
        {
          "internalType": "uint256",
          "name": "",
          "type": "uint256"
        }
      ],
      "stateMutability": "view",
      "type": "function",
      "constant": true
    },
    {
      "inputs": [
        {
          "internalType": "address",
          "name": "newAdmin",
          "type": "address"
        }
      ],
      "name": "changeAdmin",
      "outputs": [],
      "stateMutability": "nonpayable",
      "type": "function"
    },
    {
      "inputs": [
        {
          "internalType": "string",
          "name": "name",
          "type": "string"
        }
      ],
      "name": "addCandidate",
      "outputs": [],
      "stateMutability": "nonpayable",
      "type": "function"
    },
    {
      "inputs": [],
      "name": "startVote",
      "outputs": [],
      "stateMutability": "nonpayable",
      "type": "function"
    },
    {
      "inputs": [],
      "name": "endVote",
      "outputs": [],
      "stateMutability": "nonpayable",
      "type": "function"
    },
    {
      "inputs": [
        {
          "internalType": "string",
          "name": "candidate",
          "type": "string"
        }
      ],
      "name": "vote",
      "outputs": [],
      "stateMutability": "nonpayable",
      "type": "function"
    },
    {
      "inputs": [
        {
          "internalType": "string",
          "name": "candidate",
          "type": "string"
        }
      ],
      "name": "voteCount",
      "outputs": [
        {
          "internalType": "uint256",
          "name": "",
          "type": "uint256"
        }
      ],
      "stateMutability": "view",
      "type": "function",
      "constant": true
    }
  ],
  "bytecode": "0x608060405234801561001057600080fd5b50336000806101000a81548173ffffffffffffffffffffffffffffffffffffffff021916908373ffffffffffffffffffffffffffffffffffffffff16021790555060008060146101000a81548160ff021916908315150217905550610f6b8061007a6000396000f3fe608060405234801561001057600080fd5b50600436106100a95760003560e01c8063b13c744b11610071578063b13c744b14610150578063b922394614610180578063ba7f75521461018a578063d0dc0180146101ba578063f851a440146101d8578063fc36e15b146101f6576100a9565b806309eef43e146100ae578063462e91ec146100de5780634c0a6af0146100fa5780638d4b44d9146101045780638f28397014610134575b600080fd5b6100c860048036038101906100c39190610982565b610212565b6040516100d59190610c04565b60405180910390f35b6100f860048036038101906100f391906109ab565b610232565b005b610102610323565b005b61011e600480360381019061011991906109ab565b6103ce565b60405161012b9190610cc1565b60405180910390f35b61014e60048036038101906101499190610982565b6103fc565b005b61016a600480360381019061016591906109ec565b6104cd565b6040516101779190610c1f565b60405180910390f35b610188610579565b005b6101a4600480360381019061019f91906109ab565b610623565b6040516101b19190610cc1565b60405180910390f35b6101c261064b565b6040516101cf9190610c04565b60405180910390f35b6101e061065e565b6040516101ed9190610be9565b60405180910390f35b610210600480360381019061020b91906109ab565b610682565b005b60016020528060005260406000206000915054906101000a900460ff1681565b60008054906101000a900473ffffffffffffffffffffffffffffffffffffffff1673ffffffffffffffffffffffffffffffffffffffff163373ffffffffffffffffffffffffffffffffffffffff16146102c0576040517f08c379a00000000000000000000000000000000000000000000000000000000081526004016102b790610c61565b60405180910390fd5b6003819080600181540180825580915050600190039060005260206000200160009091909190915090805190602001906102fb92919061084d565b50600060028260405161030e9190610bd2565b90815260200160405180910390208190555050565b60008054906101000a900473ffffffffffffffffffffffffffffffffffffffff1673ffffffffffffffffffffffffffffffffffffffff163373ffffffffffffffffffffffffffffffffffffffff16146103b1576040517f08c379a00000000000000000000000000000000000000000000000000000000081526004016103a890610c61565b60405180910390fd5b6001600060146101000a81548160ff021916908315150217905550565b6002818051602081018201805184825260208301602085012081835280955050505050506000915090505481565b60008054906101000a900473ffffffffffffffffffffffffffffffffffffffff1673ffffffffffffffffffffffffffffffffffffffff163373ffffffffffffffffffffffffffffffffffffffff161461048a576040517f08c379a000000000000000000000000000000000000000000000000000000000815260040161048190610c61565b60405180910390fd5b806000806101000a81548173ffffffffffffffffffffffffffffffffffffffff021916908373ffffffffffffffffffffffffffffffffffffffff16021790555050565b600381815481106104dd57600080fd5b9060005260206000200160009150905080546104f890610dee565b80601f016020809104026020016040519081016040528092919081815260200182805461052490610dee565b80156105715780601f1061054657610100808354040283529160200191610571565b820191906000526020600020905b81548152906001019060200180831161055457829003601f168201915b505050505081565b60008054906101000a900473ffffffffffffffffffffffffffffffffffffffff1673ffffffffffffffffffffffffffffffffffffffff163373ffffffffffffffffffffffffffffffffffffffff1614610607576040517f08c379a00000000000000000000000000000000000000000000000000000000081526004016105fe90610c61565b60405180910390fd5b60008060146101000a81548160ff021916908315150217905550565b60006002826040516106359190610bd2565b9081526020016040518091039020549050919050565b600060149054906101000a900460ff1681565b60008054906101000a900473ffffffffffffffffffffffffffffffffffffffff1681565b600060149054906101000a900460ff166106d1576040517f08c379a00000000000000000000000000000000000000000000000000000000081526004016106c890610ca1565b60405180910390fd5b600160003373ffffffffffffffffffffffffffffffffffffffff1673ffffffffffffffffffffffffffffffffffffffff16815260200190815260200160002060009054906101000a900460ff161561075e576040517f08c379a000000000000000000000000000000000000000000000000000000000815260040161075590610c41565b60405180910390fd5b60006002826040516107709190610bd2565b908152602001604051809103902054116107bf576040517f08c379a00000000000000000000000000000000000000000000000000000000081526004016107b690610c81565b60405180910390fd5b6002816040516107cf9190610bd2565b908152602001604051809103902060008154809291906107ee90610e20565b919050555060018060003373ffffffffffffffffffffffffffffffffffffffff1673ffffffffffffffffffffffffffffffffffffffff16815260200190815260200160002060006101000a81548160ff02191690831515021790555050565b82805461085990610dee565b90600052602060002090601f01602090048101928261087b57600085556108c2565b82601f1061089457805160ff19168380011785556108c2565b828001600101855582156108c2579182015b828111156108c15782518255916020019190600101906108a6565b5b5090506108cf91906108d3565b5090565b5b808211156108ec5760008160009055506001016108d4565b5090565b60006109036108fe84610d0d565b610cdc565b90508281526020810184848401111561091b57600080fd5b610926848285610dac565b509392505050565b60008135905061093d81610f07565b92915050565b600082601f83011261095457600080fd5b81356109648482602086016108f0565b91505092915050565b60008135905061097c81610f1e565b92915050565b60006020828403121561099457600080fd5b60006109a28482850161092e565b91505092915050565b6000602082840312156109bd57600080fd5b600082013567ffffffffffffffff8111156109d757600080fd5b6109e384828501610943565b91505092915050565b6000602082840312156109fe57600080fd5b6000610a0c8482850161096d565b91505092915050565b610a1e81610d64565b82525050565b610a2d81610d76565b82525050565b6000610a3e82610d3d565b610a488185610d48565b9350610a58818560208601610dbb565b610a6181610ef6565b840191505092915050565b6000610a7782610d3d565b610a818185610d59565b9350610a91818560208601610dbb565b80840191505092915050565b6000610aaa601783610d48565b91507f596f75206861766520616c726561647920766f7465642e0000000000000000006000830152602082019050919050565b6000610aea602283610d48565b91507f4f6e6c792061646d696e2063616e2063616c6c20746869732066756e6374696f60008301527f6e2e0000000000000000000000000000000000000000000000000000000000006020830152604082019050919050565b6000610b50601683610d48565b91507f4e6f7420612076616c69642063616e6469646174652e000000000000000000006000830152602082019050919050565b6000610b90601a83610d48565b91507f566f74696e67206973206e6f742073746172746564207965742e0000000000006000830152602082019050919050565b610bcc81610da2565b82525050565b6000610bde8284610a6c565b915081905092915050565b6000602082019050610bfe6000830184610a15565b92915050565b6000602082019050610c196000830184610a24565b92915050565b60006020820190508181036000830152610c398184610a33565b905092915050565b60006020820190508181036000830152610c5a81610a9d565b9050919050565b60006020820190508181036000830152610c7a81610add565b9050919050565b60006020820190508181036000830152610c9a81610b43565b9050919050565b60006020820190508181036000830152610cba81610b83565b9050919050565b6000602082019050610cd66000830184610bc3565b92915050565b6000604051905081810181811067ffffffffffffffff82111715610d0357610d02610ec7565b5b8060405250919050565b600067ffffffffffffffff821115610d2857610d27610ec7565b5b601f19601f8301169050602081019050919050565b600081519050919050565b600082825260208201905092915050565b600081905092915050565b6000610d6f82610d82565b9050919050565b60008115159050919050565b600073ffffffffffffffffffffffffffffffffffffffff82169050919050565b6000819050919050565b82818337600083830152505050565b60005b83811015610dd9578082015181840152602081019050610dbe565b83811115610de8576000848401525b50505050565b60006002820490506001821680610e0657607f821691505b60208210811415610e1a57610e19610e98565b5b50919050565b6000610e2b82610da2565b91507fffffffffffffffffffffffffffffffffffffffffffffffffffffffffffffffff821415610e5e57610e5d610e69565b5b600182019050919050565b7f4e487b7100000000000000000000000000000000000000000000000000000000600052601160045260246000fd5b7f4e487b7100000000000000000000000000000000000000000000000000000000600052602260045260246000fd5b7f4e487b7100000000000000000000000000000000000000000000000000000000600052604160045260246000fd5b6000601f19601f8301169050919050565b610f1081610d64565b8114610f1b57600080fd5b50565b610f2781610da2565b8114610f3257600080fd5b5056fea26469706673582212206a7921684463930e20b6f746c016c3db1fdade9c2c8fd3c44b801fdbf249755b64736f6c63430008000033",
  "immutableReferences": {},
  "source": "// SPDX-License-Identifier: MIT\r\npragma solidity ^0.8.0;\r\n\r\ncontract Voting {\r\n    address public admin;\r\n    bool public voteStarted;\r\n    mapping(address => bool) public hasVoted;\r\n    mapping(string => uint) public votesReceived;\r\n    string[] public candidateList;\r\n\r\n    modifier onlyAdmin() {\r\n        require(msg.sender == admin, \"Only admin can call this function.\");\r\n        _;\r\n    }\r\n\r\n    constructor() {\r\n        admin = msg.sender; // Set the contract deployer as the admin\r\n        voteStarted = false;\r\n    }\r\n\r\n    function changeAdmin(address newAdmin) public onlyAdmin {\r\n        admin = newAdmin;\r\n    }\r\n\r\n    function addCandidate(string memory name) public onlyAdmin {\r\n        candidateList.push(name);\r\n        votesReceived[name] = 0;\r\n    }\r\n\r\n    function startVote() public onlyAdmin {\r\n        voteStarted = true;\r\n    }\r\n\r\n    function endVote() public onlyAdmin {\r\n        voteStarted = false;\r\n    }\r\n\r\n    function vote(string memory candidate) public {\r\n        require(voteStarted, \"Voting is not started yet.\");\r\n        require(!hasVoted[msg.sender], \"You have already voted.\");\r\n        require(votesReceived[candidate] > 0, \"Not a valid candidate.\");\r\n        votesReceived[candidate]++;\r\n        hasVoted[msg.sender] = true;\r\n    }\r\n\r\n    function voteCount(string memory candidate) public view returns (uint) {\r\n        return votesReceived[candidate];\r\n    }\r\n}\r\n",
  "sourcePath": "C:\\Users\\Administrator\\Documents\\EVOTE\\contracts\\Voting.sol",
  "compiler": {
    "name": "solc",
    "version": "0.8.0+commit.c7dfd78e.Emscripten.clang"
  },
  "schemaVersion": "3.4.16",
  "updatedAt": "2024-01-22T04:11:16.426Z",
  "networkType": "ethereum",
  "devdoc": {
    "kind": "dev",
    "methods": {},
    "version": 1
  },
  "userdoc": {
    "kind": "user",
    "methods": {},
    "version": 1
  }
}